{
  "contractName": "GoForItToken",
  "abi": [
    {
      "constant": true,
      "inputs": [],
      "name": "name",
      "outputs": [
        {
          "name": "",
          "type": "string"
        }
      ],
      "payable": false,
      "stateMutability": "view",
      "type": "function"
    },
    {
      "constant": false,
      "inputs": [
        {
          "name": "spender",
          "type": "address"
        },
        {
          "name": "value",
          "type": "uint256"
        }
      ],
      "name": "approve",
      "outputs": [
        {
          "name": "",
          "type": "bool"
        }
      ],
      "payable": false,
      "stateMutability": "nonpayable",
      "type": "function"
    },
    {
      "constant": true,
      "inputs": [],
      "name": "totalSupply",
      "outputs": [
        {
          "name": "",
          "type": "uint256"
        }
      ],
      "payable": false,
      "stateMutability": "view",
      "type": "function"
    },
    {
      "constant": false,
      "inputs": [
        {
          "name": "sender",
          "type": "address"
        },
        {
          "name": "recipient",
          "type": "address"
        },
        {
          "name": "amount",
          "type": "uint256"
        }
      ],
      "name": "transferFrom",
      "outputs": [
        {
          "name": "",
          "type": "bool"
        }
      ],
      "payable": false,
      "stateMutability": "nonpayable",
      "type": "function"
    },
    {
      "constant": true,
      "inputs": [],
      "name": "decimals",
      "outputs": [
        {
          "name": "",
          "type": "uint8"
        }
      ],
      "payable": false,
      "stateMutability": "view",
      "type": "function"
    },
    {
      "constant": true,
      "inputs": [
        {
          "name": "",
          "type": "address"
        }
      ],
      "name": "vestingContracts",
      "outputs": [
        {
          "name": "",
          "type": "address"
        }
      ],
      "payable": false,
      "stateMutability": "view",
      "type": "function"
    },
    {
      "constant": false,
      "inputs": [
        {
          "name": "spender",
          "type": "address"
        },
        {
          "name": "addedValue",
          "type": "uint256"
        }
      ],
      "name": "increaseAllowance",
      "outputs": [
        {
          "name": "",
          "type": "bool"
        }
      ],
      "payable": false,
      "stateMutability": "nonpayable",
      "type": "function"
    },
    {
      "constant": false,
      "inputs": [
        {
          "name": "amount",
          "type": "uint256"
        }
      ],
      "name": "burn",
      "outputs": [],
      "payable": false,
      "stateMutability": "nonpayable",
      "type": "function"
    },
    {
      "constant": true,
      "inputs": [
        {
          "name": "account",
          "type": "address"
        }
      ],
      "name": "balanceOf",
      "outputs": [
        {
          "name": "",
          "type": "uint256"
        }
      ],
      "payable": false,
      "stateMutability": "view",
      "type": "function"
    },
    {
      "constant": false,
      "inputs": [
        {
          "name": "account",
          "type": "address"
        },
        {
          "name": "amount",
          "type": "uint256"
        }
      ],
      "name": "burnFrom",
      "outputs": [],
      "payable": false,
      "stateMutability": "nonpayable",
      "type": "function"
    },
    {
      "constant": true,
      "inputs": [],
      "name": "symbol",
      "outputs": [
        {
          "name": "",
          "type": "string"
        }
      ],
      "payable": false,
      "stateMutability": "view",
      "type": "function"
    },
    {
      "constant": false,
      "inputs": [
        {
          "name": "spender",
          "type": "address"
        },
        {
          "name": "subtractedValue",
          "type": "uint256"
        }
      ],
      "name": "decreaseAllowance",
      "outputs": [
        {
          "name": "",
          "type": "bool"
        }
      ],
      "payable": false,
      "stateMutability": "nonpayable",
      "type": "function"
    },
    {
      "constant": false,
      "inputs": [
        {
          "name": "recipient",
          "type": "address"
        },
        {
          "name": "amount",
          "type": "uint256"
        }
      ],
      "name": "transfer",
      "outputs": [
        {
          "name": "",
          "type": "bool"
        }
      ],
      "payable": false,
      "stateMutability": "nonpayable",
      "type": "function"
    },
    {
      "constant": true,
      "inputs": [
        {
          "name": "owner",
          "type": "address"
        },
        {
          "name": "spender",
          "type": "address"
        }
      ],
      "name": "allowance",
      "outputs": [
        {
          "name": "",
          "type": "uint256"
        }
      ],
      "payable": false,
      "stateMutability": "view",
      "type": "function"
    },
    {
      "inputs": [
        {
          "name": "beneficiaries",
          "type": "address[]"
        },
        {
          "name": "vestingInDays",
          "type": "uint256[]"
        },
        {
          "name": "amounts",
          "type": "uint256[]"
        }
      ],
      "payable": false,
      "stateMutability": "nonpayable",
      "type": "constructor"
    },
    {
      "anonymous": false,
      "inputs": [
        {
          "indexed": false,
          "name": "beneficiary",
          "type": "address"
        },
        {
          "indexed": false,
          "name": "contractAddress",
          "type": "address"
        },
        {
          "indexed": false,
          "name": "amount",
          "type": "uint256"
        }
      ],
      "name": "TokenVested",
      "type": "event"
    },
    {
      "anonymous": false,
      "inputs": [
        {
          "indexed": true,
          "name": "from",
          "type": "address"
        },
        {
          "indexed": true,
          "name": "to",
          "type": "address"
        },
        {
          "indexed": false,
          "name": "value",
          "type": "uint256"
        }
      ],
      "name": "Transfer",
      "type": "event"
    },
    {
      "anonymous": false,
      "inputs": [
        {
          "indexed": true,
          "name": "owner",
          "type": "address"
        },
        {
          "indexed": true,
          "name": "spender",
          "type": "address"
        },
        {
          "indexed": false,
          "name": "value",
          "type": "uint256"
        }
      ],
      "name": "Approval",
      "type": "event"
    },
    {
      "constant": false,
      "inputs": [],
      "name": "release",
      "outputs": [],
      "payable": false,
      "stateMutability": "nonpayable",
      "type": "function"
    }
  ],
  "bytecode": "0x60c0604052600a60808190527f476f696e20546f6b656e0000000000000000000000000000000000000000000060a09081526200004091600391906200072b565b506040805180820190915260038082527f474f490000000000000000000000000000000000000000000000000000000000602090920191825262000087916004916200072b565b506005805460ff19166012179055348015620000a257600080fd5b50604051620024d1380380620024d183398101806040526060811015620000c857600080fd5b810190808051640100000000811115620000e157600080fd5b82016020810184811115620000f557600080fd5b81518560208202830111640100000000821117156200011357600080fd5b505092919060200180516401000000008111156200013057600080fd5b820160208101848111156200014457600080fd5b81518560208202830111640100000000821117156200016257600080fd5b505092919060200180516401000000008111156200017f57600080fd5b820160208101848111156200019357600080fd5b8151856020820283011164010000000082111715620001b157600080fd5b505092919050505081518351148015620001cc575081518151145b6200023857604080517f08c379a000000000000000000000000000000000000000000000000000000000815260206004820152601b60248201527f6172726179206c656e67746820646f6573206e6f74206d617463680000000000604482015290519081900360640190fd5b60005b8351811015620004f95760008382815181106200025457fe5b6020026020010151905060006001600160a01b0316600660008785815181106200027a57fe5b6020908102919091018101516001600160a01b039081168352908201929092526040016000205416146200030f57604080517f08c379a000000000000000000000000000000000000000000000000000000000815260206004820152601b60248201527f6f6e6c79203120636f6e74726163742070657220616464726573730000000000604482015290519081900360640190fd5b8015620004c95760008583815181106200032557fe5b6020026020010151428362015180028786815181106200034157fe5b6020026020010151620151800260006040516200035e90620007b0565b6001600160a01b039095168552602085019390935260408085019290925260608401529015156080830152519081900360a001906000f080158015620003a8573d6000803e3d6000fd5b509050620003d181858581518110620003bd57fe5b60200260200101516200058d60201b60201c565b8060066000888681518110620003e357fe5b60200260200101516001600160a01b03166001600160a01b0316815260200190815260200160002060006101000a8154816001600160a01b0302191690836001600160a01b031602179055507f83a699f2fda2c137aa4f84b56d51b608b27c8374db4b74444a2a7b6303e4a5ed8684815181106200045d57fe5b6020026020010151828686815181106200047357fe5b602002602001015160405180846001600160a01b03166001600160a01b03168152602001836001600160a01b03166001600160a01b03168152602001828152602001935050505060405180910390a150620004ef565b620004ef858381518110620004da57fe5b6020026020010151848481518110620003bd57fe5b506001016200023b565b506b2863c1f5cdae42f95400000062000517620006a860201b60201c565b146200058457604080517f08c379a000000000000000000000000000000000000000000000000000000000815260206004820152601a60248201527f746f74616c737570706c7920646f6573206e6f74206d61746368000000000000604482015290519081900360640190fd5b505050620007db565b6001600160a01b0382166200060357604080517f08c379a000000000000000000000000000000000000000000000000000000000815260206004820152601f60248201527f45524332303a206d696e7420746f20746865207a65726f206164647265737300604482015290519081900360640190fd5b6200061f81600254620006af60201b620009771790919060201c565b6002556001600160a01b038216600090815260208181526040909120546200065291839062000977620006af821b17901c565b6001600160a01b0383166000818152602081815260408083209490945583518581529351929391927fddf252ad1be2c89b69c2b068fc378daa952ba7f163c4a11628f55a4df523b3ef9281900390910190a35050565b6002545b90565b6000828201838110156200072457604080517f08c379a000000000000000000000000000000000000000000000000000000000815260206004820152601b60248201527f536166654d6174683a206164646974696f6e206f766572666c6f770000000000604482015290519081900360640190fd5b9392505050565b828054600181600116156101000203166002900490600052602060002090601f016020900481019282601f106200076e57805160ff19168380011785556200079e565b828001600101855582156200079e579182015b828111156200079e57825182559160200191906001019062000781565b50620007ac929150620007be565b5090565b61110f80620013c283390190565b620006ac91905b80821115620007ac5760008155600101620007c5565b610bd780620007eb6000396000f3fe608060405234801561001057600080fd5b50600436106100f55760003560e01c806342966c681161009757806395d89b411161006657806395d89b411461030c578063a457c2d714610314578063a9059cbb14610340578063dd62ed3e1461036c576100f5565b806342966c681461029357806370a08231146102b257806379cc6790146102d857806386d1a69f14610304576100f5565b806323b872dd116100d357806323b872dd146101d1578063313ce5671461020757806337915874146102255780633950935114610267576100f5565b806306fdde03146100fa578063095ea7b31461017757806318160ddd146101b7575b600080fd5b61010261039a565b6040805160208082528351818301528351919283929083019185019080838360005b8381101561013c578181015183820152602001610124565b50505050905090810190601f1680156101695780820380516001836020036101000a031916815260200191505b509250505060405180910390f35b6101a36004803603604081101561018d57600080fd5b506001600160a01b038135169060200135610428565b604080519115158252519081900360200190f35b6101bf61043e565b60408051918252519081900360200190f35b6101a3600480360360608110156101e757600080fd5b506001600160a01b03813581169160208101359091169060400135610444565b61020f61049b565b6040805160ff9092168252519081900360200190f35b61024b6004803603602081101561023b57600080fd5b50356001600160a01b03166104a4565b604080516001600160a01b039092168252519081900360200190f35b6101a36004803603604081101561027d57600080fd5b506001600160a01b0381351690602001356104bf565b6102b0600480360360208110156102a957600080fd5b50356104fb565b005b6101bf600480360360208110156102c857600080fd5b50356001600160a01b0316610508565b6102b0600480360360408110156102ee57600080fd5b506001600160a01b038135169060200135610523565b6102b0610531565b61010261060e565b6101a36004803603604081101561032a57600080fd5b506001600160a01b038135169060200135610669565b6101a36004803603604081101561035657600080fd5b506001600160a01b0381351690602001356106a5565b6101bf6004803603604081101561038257600080fd5b506001600160a01b03813581169160200135166106b2565b6003805460408051602060026001851615610100026000190190941693909304601f810184900484028201840190925281815292918301828280156104205780601f106103f557610100808354040283529160200191610420565b820191906000526020600020905b81548152906001019060200180831161040357829003601f168201915b505050505081565b60006104353384846106dd565b50600192915050565b60025490565b60006104518484846107cf565b6001600160a01b03841660009081526001602090815260408083203380855292529091205461049191869161048c908663ffffffff61091716565b6106dd565b5060019392505050565b60055460ff1681565b6006602052600090815260409020546001600160a01b031681565b3360008181526001602090815260408083206001600160a01b0387168452909152812054909161043591859061048c908663ffffffff61097716565b61050533826109db565b50565b6001600160a01b031660009081526020819052604090205490565b61052d8282610ab7565b5050565b336000908152600660205260409020546001600160a01b031661059e5760408051600160e51b62461bcd02815260206004820152601060248201527f6e6f20746f6b656e732076657374656400000000000000000000000000000000604482015290519081900360640190fd5b33600090815260066020526040808220548151600160e01b631916558702815230600482015291516001600160a01b03909116926319165587926024808201939182900301818387803b1580156105f457600080fd5b505af1158015610608573d6000803e3d6000fd5b50505050565b6004805460408051602060026001851615610100026000190190941693909304601f810184900484028201840190925281815292918301828280156104205780601f106103f557610100808354040283529160200191610420565b3360008181526001602090815260408083206001600160a01b0387168452909152812054909161043591859061048c908663ffffffff61091716565b60006104353384846107cf565b6001600160a01b03918216600090815260016020908152604080832093909416825291909152205490565b6001600160a01b03831661072557604051600160e51b62461bcd028152600401808060200182810382526024815260200180610b886024913960400191505060405180910390fd5b6001600160a01b03821661076d57604051600160e51b62461bcd028152600401808060200182810382526022815260200180610b206022913960400191505060405180910390fd5b6001600160a01b03808416600081815260016020908152604080832094871680845294825291829020859055815185815291517f8c5be1e5ebec7d5bd14f71427d1e84f3dd0314c0f7b2291e5b200ac8c7c3b9259281900390910190a3505050565b6001600160a01b03831661081757604051600160e51b62461bcd028152600401808060200182810382526025815260200180610b636025913960400191505060405180910390fd5b6001600160a01b03821661085f57604051600160e51b62461bcd028152600401808060200182810382526023815260200180610afd6023913960400191505060405180910390fd5b6001600160a01b038316600090815260208190526040902054610888908263ffffffff61091716565b6001600160a01b0380851660009081526020819052604080822093909355908416815220546108bd908263ffffffff61097716565b6001600160a01b038084166000818152602081815260409182902094909455805185815290519193928716927fddf252ad1be2c89b69c2b068fc378daa952ba7f163c4a11628f55a4df523b3ef92918290030190a3505050565b6000828211156109715760408051600160e51b62461bcd02815260206004820152601e60248201527f536166654d6174683a207375627472616374696f6e206f766572666c6f770000604482015290519081900360640190fd5b50900390565b6000828201838110156109d45760408051600160e51b62461bcd02815260206004820152601b60248201527f536166654d6174683a206164646974696f6e206f766572666c6f770000000000604482015290519081900360640190fd5b9392505050565b6001600160a01b038216610a2357604051600160e51b62461bcd028152600401808060200182810382526021815260200180610b426021913960400191505060405180910390fd5b600254610a36908263ffffffff61091716565b6002556001600160a01b038216600090815260208190526040902054610a62908263ffffffff61091716565b6001600160a01b038316600081815260208181526040808320949094558351858152935191937fddf252ad1be2c89b69c2b068fc378daa952ba7f163c4a11628f55a4df523b3ef929081900390910190a35050565b610ac182826109db565b6001600160a01b03821660009081526001602090815260408083203380855292529091205461052d91849161048c908563ffffffff6109171656fe45524332303a207472616e7366657220746f20746865207a65726f206164647265737345524332303a20617070726f766520746f20746865207a65726f206164647265737345524332303a206275726e2066726f6d20746865207a65726f206164647265737345524332303a207472616e736665722066726f6d20746865207a65726f206164647265737345524332303a20617070726f76652066726f6d20746865207a65726f2061646472657373a165627a7a72305820d8be6af7ab9d0061fe55ff652674e3cf9f2b23a85c0d418b37453fe33452c8f00029608060405234801561001057600080fd5b5060405160a08061110f833981018060405260a081101561003057600080fd5b50805160208201516040808401516060850151608090950151600080546001600160a01b031916331780825593519596949592949391926001600160a01b0392909216917f8be0079c531659141344cd1fd0a4f28419497f9722a3daafe3b4186f6b6457e0908290a36001600160a01b0385166100f8576040517f08c379a000000000000000000000000000000000000000000000000000000000815260040180806020018281038252602d8152602001806110b7602d913960400191505060405180910390fd5b81831115610151576040517f08c379a000000000000000000000000000000000000000000000000000000000815260040180806020018281038252602b8152602001806110e4602b913960400191505060405180910390fd5b600082116101c057604080517f08c379a000000000000000000000000000000000000000000000000000000000815260206004820152601b60248201527f546f6b656e56657374696e673a206475726174696f6e20697320300000000000604482015290519081900360640190fd5b426101d8838661028060201b61071f1790919060201c565b1161022e576040517f08c379a000000000000000000000000000000000000000000000000000000000815260040180806020018281038252602f815260200180611088602f913960400191505060405180910390fd5b600180546001600160a01b0319166001600160a01b0387161790556005805460ff191682151517905560048290556102718484610280602090811b61071f17901c565b600255505050600355506102fb565b6000828201838110156102f457604080517f08c379a000000000000000000000000000000000000000000000000000000000815260206004820152601b60248201527f536166654d6174683a206164646974696f6e206f766572666c6f770000000000604482015290519081900360640190fd5b9392505050565b610d7e8061030a6000396000f3fe608060405234801561001057600080fd5b50600436106100cf5760003560e01c8063872a78101161008c5780639852595c116100665780639852595c1461019c578063be9a6555146101c2578063f2fde38b146101ca578063fa01dc06146101f0576100cf565b8063872a7810146101705780638da5cb5b1461018c5780638f32d59b14610194576100cf565b80630fb5a6b4146100d457806313d033c0146100ee57806319165587146100f657806338af3eed1461011e578063715018a61461014257806374a8f1031461014a575b600080fd5b6100dc610216565b60408051918252519081900360200190f35b6100dc61021c565b61011c6004803603602081101561010c57600080fd5b50356001600160a01b0316610222565b005b61012661032a565b604080516001600160a01b039092168252519081900360200190f35b61011c610339565b61011c6004803603602081101561016057600080fd5b50356001600160a01b03166103df565b610178610613565b604080519115158252519081900360200190f35b61012661061c565b61017861062b565b6100dc600480360360208110156101b257600080fd5b50356001600160a01b031661063c565b6100dc61065b565b61011c600480360360208110156101e057600080fd5b50356001600160a01b0316610661565b6101786004803603602081101561020657600080fd5b50356001600160a01b03166106c9565b60045490565b60025490565b600061022d826106e7565b9050600081116102875760408051600160e51b62461bcd02815260206004820152601f60248201527f546f6b656e56657374696e673a206e6f20746f6b656e73206172652064756500604482015290519081900360640190fd5b6001600160a01b0382166000908152600660205260409020546102b0908263ffffffff61071f16565b6001600160a01b038084166000818152600660205260409020929092556001546102e29291168363ffffffff61078316565b604080516001600160a01b03841681526020810183905281517fc7798891864187665ac6dd119286e44ec13f014527aeeb2b8eb3fd413df93179929181900390910190a15050565b6001546001600160a01b031690565b61034161062b565b6103955760408051600160e51b62461bcd02815260206004820181905260248201527f4f776e61626c653a2063616c6c6572206973206e6f7420746865206f776e6572604482015290519081900360640190fd5b600080546040516001600160a01b03909116907f8be0079c531659141344cd1fd0a4f28419497f9722a3daafe3b4186f6b6457e0908390a3600080546001600160a01b0319169055565b6103e761062b565b61043b5760408051600160e51b62461bcd02815260206004820181905260248201527f4f776e61626c653a2063616c6c6572206973206e6f7420746865206f776e6572604482015290519081900360640190fd5b60055460ff166104955760408051600160e51b62461bcd02815260206004820152601b60248201527f546f6b656e56657374696e673a2063616e6e6f74207265766f6b650000000000604482015290519081900360640190fd5b6001600160a01b03811660009081526007602052604090205460ff16156104f057604051600160e51b62461bcd028152600401808060200182810382526023815260200180610d306023913960400191505060405180910390fd5b60408051600160e01b6370a0823102815230600482015290516000916001600160a01b038416916370a0823191602480820192602092909190829003018186803b15801561053d57600080fd5b505afa158015610551573d6000803e3d6000fd5b505050506040513d602081101561056757600080fd5b505190506000610576836106e7565b9050600061058a838363ffffffff6107dd16565b6001600160a01b0385166000908152600760205260409020805460ff1916600117905590506105d16105ba61061c565b6001600160a01b038616908363ffffffff61078316565b604080516001600160a01b038616815290517f39983c6d4d174a7aee564f449d4a5c3c7ac9649d72b7793c56901183996f8af69181900360200190a150505050565b60055460ff1690565b6000546001600160a01b031690565b6000546001600160a01b0316331490565b6001600160a01b0381166000908152600660205260409020545b919050565b60035490565b61066961062b565b6106bd5760408051600160e51b62461bcd02815260206004820181905260248201527f4f776e61626c653a2063616c6c6572206973206e6f7420746865206f776e6572604482015290519081900360640190fd5b6106c68161083d565b50565b6001600160a01b031660009081526007602052604090205460ff1690565b6001600160a01b0381166000908152600660205260408120546107199061070d846108e0565b9063ffffffff6107dd16565b92915050565b60008282018381101561077c5760408051600160e51b62461bcd02815260206004820152601b60248201527f536166654d6174683a206164646974696f6e206f766572666c6f770000000000604482015290519081900360640190fd5b9392505050565b604080516001600160a01b038416602482015260448082018490528251808303909101815260649091019091526020810180516001600160e01b0316600160e01b63a9059cbb021790526107d8908490610a28565b505050565b6000828211156108375760408051600160e51b62461bcd02815260206004820152601e60248201527f536166654d6174683a207375627472616374696f6e206f766572666c6f770000604482015290519081900360640190fd5b50900390565b6001600160a01b03811661088557604051600160e51b62461bcd028152600401808060200182810382526026815260200180610cbf6026913960400191505060405180910390fd5b600080546040516001600160a01b03808516939216917f8be0079c531659141344cd1fd0a4f28419497f9722a3daafe3b4186f6b6457e091a3600080546001600160a01b0319166001600160a01b0392909216919091179055565b60408051600160e01b6370a08231028152306004820152905160009182916001600160a01b038516916370a08231916024808301926020929190829003018186803b15801561092e57600080fd5b505afa158015610942573d6000803e3d6000fd5b505050506040513d602081101561095857600080fd5b50516001600160a01b0384166000908152600660205260408120549192509061098890839063ffffffff61071f16565b905060025442101561099f57600092505050610656565b6004546003546109b49163ffffffff61071f16565b421015806109da57506001600160a01b03841660009081526007602052604090205460ff165b156109e85791506106569050565b610a1f600454610a13610a06600354426107dd90919063ffffffff16565b849063ffffffff610bef16565b9063ffffffff610c4b16565b92505050610656565b610a3a826001600160a01b0316610cb8565b610a8e5760408051600160e51b62461bcd02815260206004820152601f60248201527f5361666545524332303a2063616c6c20746f206e6f6e2d636f6e747261637400604482015290519081900360640190fd5b60006060836001600160a01b0316836040518082805190602001908083835b60208310610acc5780518252601f199092019160209182019101610aad565b6001836020036101000a0380198251168184511680821785525050505050509050019150506000604051808303816000865af19150503d8060008114610b2e576040519150601f19603f3d011682016040523d82523d6000602084013e610b33565b606091505b509150915081610b8d5760408051600160e51b62461bcd02815260206004820181905260248201527f5361666545524332303a206c6f772d6c6576656c2063616c6c206661696c6564604482015290519081900360640190fd5b805115610be957808060200190516020811015610ba957600080fd5b5051610be957604051600160e51b62461bcd02815260040180806020018281038252602a815260200180610d06602a913960400191505060405180910390fd5b50505050565b600082610bfe57506000610719565b82820282848281610c0b57fe5b041461077c57604051600160e51b62461bcd028152600401808060200182810382526021815260200180610ce56021913960400191505060405180910390fd5b6000808211610ca45760408051600160e51b62461bcd02815260206004820152601a60248201527f536166654d6174683a206469766973696f6e206279207a65726f000000000000604482015290519081900360640190fd5b6000828481610caf57fe5b04949350505050565b3b15159056fe4f776e61626c653a206e6577206f776e657220697320746865207a65726f2061646472657373536166654d6174683a206d756c7469706c69636174696f6e206f766572666c6f775361666545524332303a204552433230206f7065726174696f6e20646964206e6f742073756363656564546f6b656e56657374696e673a20746f6b656e20616c7265616479207265766f6b6564a165627a7a7230582090c2f008c94816c89bb8214117855f8462ea9f5faa1c417f05c972b9ca322b4b0029546f6b656e56657374696e673a2066696e616c2074696d65206973206265666f72652063757272656e742074696d65546f6b656e56657374696e673a2062656e656669636961727920697320746865207a65726f2061646472657373546f6b656e56657374696e673a20636c696666206973206c6f6e676572207468616e206475726174696f6e",
  "source": "pragma solidity 0.5.8;\n\nimport 'openzeppelin-solidity/contracts/token/ERC20/ERC20Burnable.sol';\nimport 'openzeppelin-solidity/contracts/drafts/TokenVesting.sol';\n\n\ncontract GoForItToken is ERC20Burnable {\n\n    uint constant TOTALTOKENSUPPLY = 12500000000 ether;\n\n    string public name = \"Goin Token\";\n    string public symbol = \"GOI\";\n    uint8 public decimals = 18;\n\n    mapping(address => address) public vestingContracts;\n\n    event TokenVested(address beneficiary, address contractAddress, uint amount);\n\n    /// @dev Constructor\n    constructor(address[] memory beneficiaries,\n             uint[] memory vestingInDays,\n              uint[] memory amounts\n              )\n              public {\n        require(beneficiaries.length == vestingInDays.length &&\n                amounts.length == vestingInDays.length,\n                \"array length does not match\");\n\n        for(uint i=0;i<beneficiaries.length;i++) {\n            uint vestingDays = vestingInDays[i];\n            require(vestingContracts[beneficiaries[i]]== address(0), \"only 1 contract per address\");\n            if(vestingDays>0) {\n            TokenVesting vestingContract =new TokenVesting(beneficiaries[i],now,vestingDays* 1 days,vestingInDays[i]* 1 days, false);\n            _mint(address(vestingContract),amounts[i]);\n            vestingContracts[beneficiaries[i]]=address(vestingContract);\n            emit TokenVested(beneficiaries[i],address(vestingContract),amounts[i]);\n            }\n            else {\n            _mint(beneficiaries[i],amounts[i]);\n            }\n\n    }\n  require(totalSupply()== TOTALTOKENSUPPLY, \"totalsupply does not match\");\n  }\n\n  function release() public {\n      require(vestingContracts[msg.sender] != address(0),\"no tokens vested\");\n      TokenVesting(vestingContracts[msg.sender]).release(IERC20(address(this)));\n  }\n\n\n\n\n}\n",
  "sourcePath": "/home/lukas/sicos/tokencontract/contracts/GoFotItToken.sol",
  "compiler": {
    "name": "solc",
    "version": "0.5.8+commit.23d335f2.Emscripten.clang"
  },
  "schemaVersion": "3.0.11",
  "updatedAt": "2019-07-18T10:15:34.295Z",
  "devdoc": {
    "methods": {
      "allowance(address,address)": {
        "details": "See `IERC20.allowance`."
      },
      "approve(address,uint256)": {
        "details": "See `IERC20.approve`.     * Requirements:     * - `spender` cannot be the zero address."
      },
      "balanceOf(address)": {
        "details": "See `IERC20.balanceOf`."
      },
      "burn(uint256)": {
        "details": "Destoys `amount` tokens from the caller.     * See `ERC20._burn`."
      },
      "burnFrom(address,uint256)": {
        "details": "See `ERC20._burnFrom`."
      },
      "constructor": {
        "details": "Constructor"
      },
      "decreaseAllowance(address,uint256)": {
        "details": "Atomically decreases the allowance granted to `spender` by the caller.     * This is an alternative to `approve` that can be used as a mitigation for problems described in `IERC20.approve`.     * Emits an `Approval` event indicating the updated allowance.     * Requirements:     * - `spender` cannot be the zero address. - `spender` must have allowance for the caller of at least `subtractedValue`."
      },
      "increaseAllowance(address,uint256)": {
        "details": "Atomically increases the allowance granted to `spender` by the caller.     * This is an alternative to `approve` that can be used as a mitigation for problems described in `IERC20.approve`.     * Emits an `Approval` event indicating the updated allowance.     * Requirements:     * - `spender` cannot be the zero address."
      },
      "totalSupply()": {
        "details": "See `IERC20.totalSupply`."
      },
      "transfer(address,uint256)": {
        "details": "See `IERC20.transfer`.     * Requirements:     * - `recipient` cannot be the zero address. - the caller must have a balance of at least `amount`."
      },
      "transferFrom(address,address,uint256)": {
        "details": "See `IERC20.transferFrom`.     * Emits an `Approval` event indicating the updated allowance. This is not required by the EIP. See the note at the beginning of `ERC20`;     * Requirements: - `sender` and `recipient` cannot be the zero address. - `sender` must have a balance of at least `value`. - the caller must have allowance for `sender`'s tokens of at least `amount`."
      }
    }
  },
  "userdoc": {
    "methods": {}
  }
}